:020000040000FA
:10000000020997EFB40A07740D12000E740A3098B3
:1000100011A899B8130CC2983098FDA899C298B845
:0A00200011F63099FDC299F59922FE
:07002B00020AF775A640224E
:1000330002090075A20B43A14053F8F343F80122D0
:10004300020E12EF540FC454F0FEEF54F0C4540FD9
:100053004EFF543325E025E0FEEF54CC1313543FF9
:0F0063004EFF545525E0FEEF54AAC3134EFF2263
:10007300020A23E56E2462F8E6056E22785F3007F4
:10008300027862E475F0011206090204C82000EB4D
:100093007F2ED2008018EF540F2490D43440D4FF25
:1000A30030040BEF24BFB41A0050032461FFE56F43
:1000B3006002156F0572E5727002057130070D78E5
:1000C3005FE475F001120609EF0205F702000374FD
:1000D30003D2078003E4C207F56E8B5F8A608961F0
:1000E300E4F56FF571F572E56F60077F201200B1DB
:1000F30080F57570FFC201C200C202C203C205C20D
:1001030006C20812007FFF700D3007057F00120042
:10011300C2AF72AE7122B4255FC2D5C20412007F92
:10012300FF24D0B40A00501A75F00A786F30D50551
:1001330008B6FF0106C6A426F620D5047002D20332
:1001430080D924CFB41A00EF5004C2E5D2040202CE
:10015300C2D20180C6D20080C0D20280BCD2D58078
:10016300BAD20580B47F201200B12002077401B512
:100173006F0040F1120076FF1200B10200EAD208CC
:10018300D2068095120076FB120076FA120076F9F9
:100193004A4B700679937A037BFF20022EE56F604A
:1001A3002A7E008E827583001204E160060EEE65DE
:1001B3007070F0C2D5EBC0E0EAC0E0E9C0E0EE1237
:1001C3000309D0E0F9D0E0FAD0E0FB1204C8FF60E5
:1001D300AAEBC0E0EAC0E0E9C0E01200B1D0E0243D
:1001E30001F9D0E03400FAD0E0FBE5700460DCD51F
:1001F30070D980877BFF7A037905D202809C7910BE
:1002030080027908C206C2088008D2D5790A800420
:10021300790AC2D5E570047002F570E4FAFDFEFFB9
:10022300120076FC7B08200113120076FD7B103050
:10023300000A120076FE120076FF7B20EC3382D593
:1002430092D55013C3E43000069FFFE49EFEE420E2
:1002530001039DFDE49CFCE4CBF8C201EC700CCFE0
:10026300CECDCCE824F8F870F38017C3EF33FFEE5C
:1002730033FEED33FDEC33FCEB33FB994002FB0F14
:10028300D8E9EB300105F8D0E0C448B201C0E00A78
:10029300EC4D4E4F78207B0070C2EAB5700040BC35
:1002A300C0E012030BD0F0D0E0200104C4C0E0C4CE
:1002B300B201C0F012009AD0F0D5F0EB0200EA12BE
:1002C300061901875302015801584C015442020593
:1002D3004F020D44020D49016D4302135501F746C8
:1002E30001F74501F74703B350015C2D01602E016F
:1002F300832B016423018120039C2A011C480000F5
:10030300017B3F3F3F00790AA2D520031430050942
:10031300B910020404B9080104A2D5200602500151
:10032300042002689202B56F005034C0E07F203091
:1003330003197F30A20272067205500F120362C2C4
:1003430002C206C205C2087F30800F300503E9C030
:10035300E01200B1300503D0E0F9D0E0B56FCC3046
:1003630005177F30B9100C1200B17F583004077F96
:10037300788003B908031200B13002057F2D020013
:10038300B17F202008F87F2B2006F322920280CF32
:10039300286E756C6C2900D2011200763001F8C208
:1003A30001786F30D50108F602011C2D50434958DE
:1003B3001200762403B405004001E49003AE9312C7
:1003C30000A2743A1200A2D203756F04020201E77D
:1003D30009F608DFFA8046E709F208DFFA803E886B
:1003E300828C83E709F0A3DFFA8032E309F608DFA2
:1003F300FA8078E309F208DFFA807088828C83E35D
:1004030009F0A3DFFA806489828A83E0A3F608DF18
:10041300FA805889828A83E0A3F208DFFA804C804D
:10042300D280FA80C680D4806980F28033801080C5
:10043300A680EA809A80A880DA80E280CA80338925
:10044300828A83ECFAE493A3C8C582C8CCC583CC63
:10045300F0A3C8C582C8CCC583CCDFE9DEE7800D35
:1004630089828A83E493A3F608DFF9ECFAA9F0ED15
:10047300FB2289828A83ECFAE0A3C8C582C8CCC573
:1004830083CCF0A3C8C582C8CCC583CCDFEADEE841
:1004930080DB89828A83E493A3F208DFF980CC8826
:1004A300F0EF60010E4E60C388F0ED2402B4040047
:1004B30050B9F582EB2402B4040050AF23234582E4
:1004C3002390042273BB010689828A83E0225002AF
:1004D300E722BBFE02E32289828A83E49322BB01E3
:1004E3000CE58229F582E5833AF583E0225006E99B
:1004F3002582F8E622BBFE06E92582F8E222E582A0
:1005030029F582E5833AF583E49322E709F6087037
:10051300FA8046E709F20870FA803E88828C83E706
:1005230009F0A370FA807EE309F60870FA8076E397
:1005330009F20870FA806E88828C83E309F0A37055
:10054300FA806289828A83E0A3F60870FA8056896A
:10055300828A83E0A3F20870FA804A80D280FA800C
:10056300C680D4806580F28031801080A680EA80C6
:100573009A80A880DA80E280CA803189828A83ECFB
:10058300FAE493A3C8C582C8CCC583CCF0A3C8C57D
:1005930082C8CCC583CC70E9800D89828A83E493B9
:1005A300A3F60870F9ECFAA9F0EDFB2289828A839D
:1005B300ECFAE0A3C8C582C8CCC583CCF0A3C8C5F8
:1005C30082C8CCC583CC70EA80DD89828A83E493B8
:1005D300A3F20870F980CE88F0ED2402B404005031
:1005E300C4F582EB2402B4040050BA2323458223CA
:1005F30090055E73BB010689828A83F0225002F75D
:1006030022BBFE01F322FAE6FB0808E6F925F0F621
:1006130018E6CA3AF622D083D082F8E493701274B3
:100623000193700DA3A393F8740193F5828883E477
:10063300737402936860EFA3A3A380DF752800752A
:100643002908E4F52AF52B120CE9C294D2AF2083D2
:100653000BE50D450C7005F50C750D01E50D450C0D
:10066300700302083C7562FF75630D75640E851097
:10067300658511667B007A0079361200D27562FFB8
:1006830075630D75640E850A65850B667B007A00BC
:1006930079331200D27562FF75630D75640E850E92
:1006A30065850F667B007A0079301200D27562FF90
:1006B30075630D75640E8512658513667B007A007C
:1006C300792C1200D27BFF7A0D7911E4FD120A8E88
:1006D30078397C007D007B007A0079361205DA7563
:1006E30062FF75630D7564167B007A007939120B0E
:1006F300567562007563007564337B007A0079393F
:10070300120B567562FF75630D7564167B007A00D4
:100713007939120B567562007563007564307B007E
:100723007A007939120B567562FF75630D7564167D
:100733007B007A007939120B567562007563007578
:10074300642C7B007A007939120B567B007A00798E
:10075300397D08120A8E53917F120DB3EF64016045
:100763000302081578497C00FD7BFF7A0D791DFE95
:100773007F031204A2784C7C007D007BFF7A0D7905
:10078300207E007F131204A274082529F529E4357D
:1007930028F528052BE52B7002052A7562FF756382
:1007A3000D75640E852A65F5667B007A007949121A
:1007B30000D27562FF75630D7564187B007A00794A
:1007C3004C120B567562007563007564497B007AA1
:1007D30000794C120B567562FF75630D7564167BB9
:1007E300007A00794C120B567562007563007564CC
:1007F300397B007A00794C120B567B007A00794CD6
:10080300AD29120A8EE529647845287005F5287507
:10081300290830820CE509640145087004F508F5E0
:100823000930830302065FE50D6401450C60030292
:10083300065FF50CF50D02065F228F658D668B67EB
:10084300AB68AA69A96A1204C870030208FFF56BB2
:10085300C3648094A04009D3E56B648094FE400395
:10086300756B20E566D394784002807CAF6BEF33E1
:1008730095E0FE75F064E567A42FF582E5F03EF59B
:1008830083E58224F5F582E5833415F583E493F952
:10089300E566131313541F2565FDF8C000E6FA0837
:1008A300E6FBE5665407FCE47EFFA804088005CE5A
:1008B300C313CE13D8F9F4FFEEF45AFEEB5FD00066
:1008C300A60608F6A805C000E6FA08E6FBE9FEE47A
:1008D300A804088005CEC313CE13D8F9FFEA4EFE51
:1008E300EB4FD000A60608F67401256AF56AE435D5
:1008F30069F56974062566F56602084322C0E0C0FF
:10090300F0C083C082C0D075D000C000C001C00257
:10091300C003C004C005C006C00775A720E5F8548E
:10092300F0F4440F52F8AF9BEF30E34DE514603120
:10093300E5A120E02C300A13851882851783E5A3EF
:10094300F00518E51870070517800385A327D5144C
:100953000D300C05300902D2FA120D9F8003851465
:1009630016E515601430F911300B09A819E2F5A347
:100973000519800375A3001515D007D006D005D03F
:1009830004D003D002D001D000D0D0D082D083D005
:10099300F0D0E032787FE4F6D8FD75818F0209DE6E
:1009A30002063FE493A3F8E493A34003F68001F225
:1009B30008DFF48029E493A3F85407240CC8C33355
:1009C300C4540F4420C8834004F456800146F6DF24
:1009D300E4800B0102040810204080900C42E47E66
:1009E300019360BCA3FF543F30E509541FFEE49319
:1009F300A360010ECF54C025E060A840B8E493A3E0
:100A0300FAE493A3F8E493A3C8C582C8CAC583CA0A
:100A1300F0A3C8C582C8CAC583CADFE9DEE780BEC2
:100A2300C0E0C0D053917FC3E51394E7E51264801F
:100A33009483500A0513E513704C05128048C3E5EF
:100A43000F943BE50E64809480501075120075136B
:100A530000050FE50F702F050E802BC3E50B943BAC
:100A6300E50A648094805010750E00750F00050B25
:100A7300E50B7012050A800E750A00750B0005114F
:100A8300E51170020510D0D0D0E0328D628B5F8A01
:100A9300608961120CC48F64E4F563E563901455B7
:100AA30093FF74802563F8A6070563E563B410EB31
:100AB300E4F5637F807B707D10120D54C007C3740F
:100AC300809564FFE49400C313EF13FD855F68858D
:100AD300606985616AD007AB6312083DE5632562EF
:100AE300FF7B007A007980120C000563E563C394F1
:100AF3000840C022C0E0C0F0C083C082C0D075D01F
:100B030000C000C001C002C003C004C005C006C0CD
:100B13000753C87F53C8FBE51CB40112751C027F41
:100B230000851D267B02E4FDFC120BAE800AE51C4A
:100B3300B40305C2A6751C00D007D006D005D004A7
:100B4300D003D002D001D000D0D0D082D083D0F057
:100B5300D0E0328B5F8A6089618B658A668967AB77
:100B63005F0561E561AA607002056014F91204C8AB
:100B730070ED74FF2561F56174FF3560F560AB625C
:100B83000564E564AA637002056314F91204C8FFDF
:100B9300AB5F0561E561AA607002056014F9EF12AD
:100BA30005F770DAAB65AA66A96722852614852640
:100BB300158526168F198C178D18EB13920AEBA245
:100BC300E1920BAFA775A720200D03120DC5439A21
:100BD3000453F80F539BEF439A08300C0530090276
:100BE300C2FA30F915E5156011300B09A819E2F5C1
:100BF300A305198003E4F5A315158FA7228F658B31
:100C0300668A6789687F80120D338F69E56504FF03
:100C13001200468F6AE4FFAB66AA67A9688F8275E4
:100C230083001204E1FE746B2FF8A6060FBF10E7D2
:100C3300E4F57BF57CFB7A0079697D14020C830271
:100C43001A0000011C00011D00021E0000C109C1A1
:100C53000CC10DC10AC10B011400011500011600DE
:100C63000119000217000002080000020C00000234
:100C7300120000020E0000020A0000021000000031
:100C83008B7D8A7E897FE51C70FC751C018D1DE4BC
:100C9300FFEFC39D5018AB7DAA7EA97F8F8275831A
:100CA300001204E1FE74002FF8EEF20F80E3AFA709
:100CB300E4F5A775CFFF75CEF4D2A643C8048FA77A
:100CC300228B658A668967E4FFAB65AA66A967AE6E
:100CD300070F8E827583001204E170ED1FEF75F02C
:100CE30006A42402FF2285A75F120DD6120DEA1275
:100CF3000E0412002E120E0B120DE0120DF4120D43
:100D030070120036120DFD855FA722256900546914
:100D13006D65003A004C6170200000000000000087
:100D230000000000000000000000000000000000C0
:100D33008F7D120D89C3EF951BFDEE951AFCD3ED44
:100D430094C8EC94004007437D408E1A8F1BAF7DFF
:100D530022ED131313541FFEEB131313541FFDEE55
:100D6300C39D5008EF2EF8E4F60E80EC22E5915473
:100D7300045391FB7595F87594067593F87592066F
:100D8300439104429122AFA775A71053E67FAD1F8D
:100D9300AC1E43E6808FA7AE04AF0522751C03AFDC
:100DA300A7E4F5A775CFFF75CEFC43C8048FA72230
:100DB300E4FF20820CE509450870060FF508750964
:100DC3000122E5A1A2E6920CE5F8540C24FF920956
:100DD300D20D22E4F5A77597DE7597AD22E4F5A74A
:100DE30075E34075E1022275A44075D43F75FE0496
:100DF30022E4F5A9E5A930E7FB2275E68275A86030
:100E03002275A50375D5FE2275A720759C1022C2F5
:100E13009432000000000000000000000000000009
:100E230000007FFFFFFFFFFFFFFFFFFFFFFFFFFF4D
:100E3300FFFE400000000000000000000000000072
:100E4300000240000000000000000000000000005D
:100E5300000240000000000000000000000000004D
:100E6300000240000000000000000000000000003D
:100E7300000240000000000000000000000000002D
:100E8300000240000000000000000000000000001D
:100E9300000240000000000000000000000000000D
:100EA30000024000000000000000000000000000FD
:100EB30000024000000000000000000000000000ED
:100EC3000002400000000000008000000000180045
:100ED3000002400000000000080007FFE0000600D9
:100EE3000002400000000000C0007FFFFE000380FE
:100EF30000024000000000070003FFFFFF0003E0C3
:100F03000002400000000038001FFFFFFF8003E0E5
:100F130000024000000001E0003FFFFFFF8003F0FC
:100F23000002400000000F8000FFFFFFFF8007F872
:100F33000002400000003E0001FFFFFFFE001FF81B
:100F4300000240000000FC0003FFFFFFFF80FFF8EA
:100F5300000240000003F80007FFFFFFFFFFFFF858
:100F6300000240000007F00007FFF8003FFFFFF812
:100F730000024000001FF00007F00000007FFFF8B0
:100F830000024000003FF00003C00000000FFFF02C
:100F930000024000007FF00001F000000003FFE0CA
:100FA3000002400000FFF800007FFF800001FFC047
:100FB3000002400001FFFC0000027FF00000FF8000
:100FC3000002400003FFFF000000003C0000FF00A0
:100FD3000002400007FFFFE0000000FE0000FE00EB
:100FE3000002400007FFFFFF8001FFFE0000F80042
:100FF3000002400007FFFFFFFFFFFFFE0001F000BC
:101003000002400007FFF87FFFFFFFFE0003C00060
:101013000002400007FFE007FFFFFFFC000700009E
:101023000002400007FF800FFFFFFFF0001C0000DD
:101033000002400003FF001FFFFFFFE0006000000D
:101043000002400003FE000FFFFFFF8001000000CD
:101053000002400001FC0007FFFFFC00000000004D
:1010630000024000007C0001FFFFC0000000000000
:1010730000024000001E00000BE000000000000022
:101083000002400000078000000000000000000094
:1010930000024000000060000000000000000000AB
:1010A30000024000000000000000000000000000FB
:1010B30000024000000000000000000000000000EB
:1010C30000024000000000000000000000000000DB
:1010D3000002400007C21021F1F888008060F8F890
:1010E30000024000044210211108C8008060888873
:1010F30000024000040210210108C800809088808B
:1011030000024000070210210108E800809088E0F7
:101113000002400001C210210108A8008090F838A5
:1011230000024000004210210108B80080908808A6
:1011330000024000004210210108980081F888084D
:101143000002400004421021110898008108888899
:101153000002400007C21F21F1F88800F908F8F8DF
:10116300000240000000000000000000000000003A
:10117300000240000000000000000000000000002A
:10118300000240000000000000000000000000001A
:10119300000240000000000000000000000000000A
:1011A30000024000000000000000000000000000FA
:1011B30000024000000000000000000000000000EA
:1011C30000024000000000000000000000000000DA
:1011D30000024000000000000000000000000000CA
:1011E30000024000000000000000000000000000BA
:1011F30000024000000000000000000000000000AA
:101203000002400000000000000000000000000099
:101213000002400000000000000000000000000089
:101223000002400000000000000000000000000079
:101233000002400000000000000000000000000069
:101243000002400000000000000000000000000059
:101253000002400000000000000000000000000049
:101263000002400000000000000000000000000039
:101273000002400000000000000000000000000029
:101283000002407FFFFFFFFFFFFFFFFFFFFFFFFFA6
:10129300FC024040000000000000000000000000CD
:1012A30004024040000000000000000000000000B5
:1012B30004024040000000000000000000000000A5
:1012C3000402404000000000000000000000000095
:1012D3000402404000000000000000000000000085
:1012E3000402404000000000000000000000000075
:1012F3000402404000000000000000000000000065
:101303000402404000000000000000000000000054
:101313000402404000000000000000000000000044
:101323000402404000000000000000000000000034
:101333000402404000000000000000000000000024
:101343000402404000000000000000000000000014
:101353000402404000000000000000000000000004
:1013630004024040000000000000000000000000F4
:1013730004024040000000000000000000000000E4
:1013830004024040000000000000000000000000D4
:1013930004024040000000000000000000000000C4
:1013A30004024040000000000000000000000000B4
:1013B30004024040000000000000000000000000A4
:1013C3000402404000000000000000000000000094
:1013D3000402404000000000000000000000000084
:1013E3000402404000000000000000000000000074
:1013F3000402404000000000000000000000000064
:101403000402404000000000000000000000000053
:101413000402404000000000000000000000000043
:101423000402404000000000000000000000000033
:101433000402404000000000000000000000000023
:101443000402404000000000000000000000000013
:101453000402404000000000000000000000000003
:1014630004024040000000000000000000000000F3
:1014730004024040000000000000000000000000E3
:1014830004024040000000000000000000000000D3
:1014930004024040000000000000000000000000C3
:1014A30004024040000000000000000000000000B3
:1014B30004024040000000000000000000000000A3
:1014C3000402404000000000000000000000000093
:1014D3000402404000000000000000000000000083
:1014E3000402404000000000000000000000000073
:1014F3000402404000000000000000000000000063
:101503000402404000000000000000000000000052
:101513000402404000000000000000000000000042
:101523000402404000000000000000000000000032
:101533000402404000000000000000000000000022
:101543000402404000000000000000000000000012
:101553000402404000000000000000000000000002
:101563000402407FFFFFFFFFFFFFFFFFFFFFFFFFBF
:10157300FC0240000000000000000000000000002A
:101583000002400000000000000000000000000016
:101593000002400000000000000000000000000006
:1015A30000024000000000000000000000000000F6
:1015B30000024000000000000000000000000000E6
:1015C30000024000000000000000000000000000D6
:1015D30000024000000000000000000000000000C6
:1015E30000024000000000000000000000000000B6
:1015F30000027FFFFFFFFFFFFFFFFFFFFFFFFFFF74
:10160300FFFE0000000000000000000000000000DA
:1016130000000020505020C0606010400000000017
:101623000000702070F810F830F8707000000800A7
:1016330080707070F070E0F8F87088703888808877
:101643008870F070F078F88888888888F87000705F
:1016530020004000800008003000802010806000DF
:101663000000000000004000000000000030206087
:101673000000000000000020505078C89020202077
:10168300202000000000886088103080400888888F
:10169300606010004088088888889080808888204F
:1016A300109080D88888888888802088888888884F
:1016B3000840001050002000800008004878800097
:1016C3000080200000000000000040000000000037
:1016D30000402010400000000000002050F880105F
:1016E300A0404010A820000000089820082050F0D7
:1016F30080108888606020F82008088888808880A7
:101703008080882010A080A8C88888888880208846
:10171300888850881040801088001070B0706870FE
:101723004088B060309020D0B070F068B070E0882E
:1017330088888888F8402010A80000000000002056
:10174300005070204000401070F800F80010A820EE
:1017530010109008F0207078000040001010688886
:10176300F08088F0F0B8F82010C080A8A888F0882E
:10177300F070208888A82050204040100000000806
:10178300C8809888E088C82010A020A8C8888898B6
:10179300C880408888885088108020081000000086
:1017A3000000000000F80840A8004010A8206000D6
:1017B3000020C8202008F80888408808606020F8C6
:1017C3002020A8F8888088808088882010A08088BE
:1017D300988880A8A008208888A85020404020101E
:1017E30000000078888088F84078882010C020A8FE
:1017F3008888F0788070408888A82078204020105E
:1018030000000000000000000050F098900020202D
:10181300202020006040882040881088884088105D
:10182300602010004000A8888888908080888820E5
:1018330090908088888880909008208850A888207D
:101843008040101000000088888888804008882025
:1018530090A02088888880088008489850A850085D
:10186300404020100000000000000020005020181D
:10187300680010400000400060807070F8701070C5
:10188300704070600040080080207088F070E0F8BD
:10189300807088706088F8888870806888F020700D
:1018A30020508820F870087000FC0078F070787081
:1018B30040708870609070888870800880F030680D
:1018C30020508870F8302060000000000000000005
:1018D3000000000000000000000000000000000005
:1018E30000000000000000000000000000000000F5
:1018F30000000000000000000000000000000000E5
:1019030000000000000000000000000000000000D4
:1019130000000000000000000000000000000000C4
:1019230000000000000000000000000000000000B4
:021933000000B2
:00000001FF
