:020000040000FA
:1000000002078CEFB40A07740D12000E740A3098C0
:1000100011A899B8130CC2983098FDA899C298B845
:0A00200011F63099FDC299F59922FE
:07002B0002088175A64022C6
:100033000205D275A20B43A14053F8F343F8012202
:10004300020B37EF540FC454F0FEEF54F0C4540FB7
:100053004EFF543325E025E0FEEF54CC1313543FF9
:0F0063004EFF545525E0FEEF54AAC3134EFF2263
:10007300020ADDE5442438F8E605442278353007E2
:10008300027838E475F0011207560206FE2000EBF1
:100093007F2ED2008018EF540F2490D43440D4FF25
:1000A30030040BEF24BFB41A0050032461FFE5456D
:1000B300600215450548E5487002054730070D788D
:1000C30035E475F001120756EF020744020003748A
:1000D30003D2078003E4C207F5448B358A36893798
:1000E300E4F545F547F548E54560077F201200B183
:1000F30080F57546FFC201C200C202C203C205C237
:1001030006C20812007FFF700D3007057F00120042
:10011300C2AF48AE4722B4255FC2D5C20412007FE6
:10012300FF24D0B40A00501A75F00A784530D5057B
:1001330008B6FF0106C6A426F620D5047002D20332
:1001430080D924CFB41A00EF5004C2E5D2040202CE
:10015300C2D20180C6D20080C0D20280BCD2D58078
:10016300BAD20580B47F201200B12002077401B512
:10017300450040F1120076FF1200B10200EAD208F6
:10018300D2068095120076FB120076FA120076F9F9
:100193004A4B700679937A037BFF20022EE5456074
:1001A3002A7E008E8275830012071760060EEE65A5
:1001B3004670F0C2D5EBC0E0EAC0E0E9C0E0EE1261
:1001C3000309D0E0F9D0E0FAD0E0FB1206FEFF60AD
:1001D300AAEBC0E0EAC0E0E9C0E01200B1D0E0243D
:1001E30001F9D0E03400FAD0E0FBE5460460DCD549
:1001F30046D980877BFF7A037905D202809C7910E8
:1002030080027908C206C2088008D2D5790A800420
:10021300790AC2D5E546047002F546E4FAFDFEFF0D
:10022300120076FC7B08200113120076FD7B103050
:10023300000A120076FE120076FF7B20EC3382D593
:1002430092D55013C3E43000069FFFE49EFEE420E2
:1002530001039DFDE49CFCE4CBF8C201EC700CCFE0
:10026300CECDCCE824F8F870F38017C3EF33FFEE5C
:1002730033FEED33FDEC33FCEB33FB994002FB0F14
:10028300D8E9EB300105F8D0E0C448B201C0E00A78
:10029300EC4D4E4F78207B0070C2EAB5460040BC5F
:1002A300C0E012030BD0F0D0E0200104C4C0E0C4CE
:1002B300B201C0F012009AD0F0D5F0EB0200EA12BE
:1002C300076601875302015801584C015442020545
:1002D3004F020D44020D49016D4302135501F746C8
:1002E30001F74501F74703B350015C2D01602E016F
:1002F300832B016423018120039C2A011C480000F5
:10030300017B3F3F3F00790AA2D520031430050942
:10031300B910020404B9080104A2D5200602500151
:10032300042002689202B545005034C0E07F2030BB
:1003330003197F30A20272067205500F120362C2C4
:1003430002C206C205C2087F30800F300503E9C030
:10035300E01200B1300503D0E0F9D0E0B545CC3070
:1003630005177F30B9100C1200B17F583004077F96
:10037300788003B908031200B13002057F2D020013
:10038300B17F202008F87F2B2006F322920280CF32
:10039300286E756C6C2900D2011200763001F8C208
:1003A30001784530D50108F602011C2D5043495808
:1003B3001200762403B405004001E49003AE9312C7
:1003C30000A2743A1200A2D203754504020201E4AA
:1003D300F528120A27120AEDEF70FAC294D2AF750C
:1003E30038FF753906753AD4855A3B855B3C7B00EB
:1003F3007A0079321200D27538FF753906753AD40E
:1004030085563B85573C7B007A00792F1200D275C5
:1004130038FF753906753AD485583B85593C7B00BE
:100423007A00792C1200D27538FF753906753AD4E3
:10043300855C3B855D3C7B007A0079291200D27B89
:10044300007A0079327D601208187BFF7A0679D72B
:100453007D581208187B007A00792F7D50120818F6
:100463007BFF7A0679DE7D481208187B007A0079D3
:100473002C7D401208187BFF7A0679E77D38120835
:10048300187B007A0079297D301208187BFF7A06E1
:1004930079F07D28120818E4F56EF56F056FE56FA6
:1004A3007002056E6420456E70F2C3E55D9463E5EA
:1004B3005C64809480500B055DE55D701F055C02F4
:1004C30003E2C3E559943BE558648094805010E4FB
:1004D300F55CF55D0559E559700205580203E2C361
:1004E300E557943BE556648094805010E4F558F545
:1004F300590557E557700205560203E2E4F556F530
:1005030057055BE55B7002055A0203E28F3B8D3CA6
:100513008B3DAB3EAA3FA9401206FE70030205D1F4
:10052300F541C3648094A04009D3E541648094FEFF
:100533004003754120E53CD394784002807CAF4171
:10054300EF3395E0FE75F064E53DA42FF582E5F009
:100553003EF583E582241AF582E5833413F583E4BB
:1005630093F9E53C131313541F253BFDF8C000E634
:10057300FA08E6FBE53C5407FCE47EFFA804088088
:1005830005CEC313CE13D8F9F4FFEEF45AFEEB5F96
:10059300D000A60608F6A805C000E6FA08E6FBE9BF
:1005A300FEE4A804088005CEC313CE13D8F9FFEAEE
:1005B3004EFEEB4FD000A60608F674012540F54029
:1005C300E4353FF53F7406253CF53C02051522C092
:1005D300E0C0F0C083C082C0D075D000C000C001AD
:1005E300C002C003C004C005C006C00775A720E54C
:1005F300F854F0F4440F52F8AF9BEF30E34DE508A5
:100603006031E5A120E02C300A13850C82850B8331
:10061300E5A3F0050CE50C7007050B800385A32704
:10062300D5080D300C05300902D2FA120AB880033E
:1006330085080AE509601430F911300B09A80DE2A9
:10064300F5A3050D800375A3001509D007D006D0C7
:1006530005D004D003D002D001D000D0D0D082D0B6
:1006630083D0F0D0E032302E204E6F726D616C205B
:100673004D6F646500312E2049646C65204D6F64B5
:100683006500322E2053746F70204D6F6465003304
:100693002E2053757370656E64204D6F646500344E
:1006A3002E20536E6F6F7A65204D6F646500352E73
:1006B3002053687574646F776E204D6F6465002AEC
:1006C3004163746976652A002A57616B6575702AE0
:1006D30000256900486F7572733A004D696E757431
:1006E30065733A005365636F6E64733A004D696CCA
:1006F3006C697365636F6E64733A00BB010689822C
:100703008A83E0225002E722BBFE02E32289828A27
:1007130083E49322BB010CE58229F582E5833AF554
:1007230083E0225006E92582F8E622BBFE06E9258E
:1007330082F8E222E58229F582E5833AF583E493A0
:1007430022BB010689828A83F0225002F722BBFE74
:1007530001F322FAE6FB0808E6F925F0F618E6CAE3
:100763003AF622D083D082F8E49370127401937026
:100773000DA3A393F8740193F5828883E473740241
:10078300936860EFA3A3A380DF787FE4F6D8FD75B9
:10079300817F0207D30203D2E493A3F8E493A34037
:1007A30003F68001F208DFF48029E493A3F85407E9
:1007B300240CC8C333C4540F4420C8834004F456E4
:1007C300800146F6DFE4800B01020408102040801C
:1007D300900932E47E019360BCA3FF543F30E509E6
:1007E300541FFEE493A360010ECF54C025E060A81C
:1007F30040B8E493A3FAE493A3F8E493A3C8C582AF
:10080300C8CAC583CAF0A3C8C582C8CAC583CADF1C
:10081300E9DEE780BE8D388B358A368937120A02C6
:100823008F3AE4F539E53990117A93FF74702539DD
:10083300F8A6070539E539B410EBE4F5397F707B89
:10084300707D10120A6DC007C37480953AFFE4945B
:1008530000C313EF13FD85353E85363F853740D002
:1008630007AB3912050FE5392538FF7B007A00798C
:100873007012097F0539E539C3940840C022C0E0EE
:10088300C0F0C083C082C0D075D000C000C001C01A
:1008930002C003C004C005C006C00753C87F53C8C5
:1008A300FBE510B401127510027F008511267B024F
:1008B300E4FDFC1208E0800AE510B40305C2A67546
:1008C3001000D007D006D005D004D003D002D00149
:1008D300D000D0D0D082D083D0F0D0E032852608AB
:1008E30085260985260A8F0D8C0B8D0CEB13920A36
:1008F300EBA2E1920BAFA775A720200D03120ACC40
:10090300439A0453F80F539BEF439A08300C053076
:100913000902C2FA30F915E5096011300B09A80D77
:10092300E2F5A3050D8003E4F5A315098FA72202C1
:100933000E000001100001110002120000C109C1E4
:100943000CC10DC10AC10B010800010900010A0015
:10095300010D00020B00000C5E0669067806850691
:100963009206A206B1046A06C206CB025C0000022C
:1009730058000002560000025A0000008F3B8B3CD7
:100983008A3D893E7F80120A4C8F3FE53B04FF126C
:1009930000468F40E4FFAB3CAA3DA93E8F8275839E
:1009A30000120717FE74412FF8A6060FBF10E7E4E5
:1009B300F551F552FB7A00793F7D140209C18B533F
:1009C3008A548955E51070FC7510018D11E4FFEF11
:1009D300C39D5018AB53AA54A9558F827583001237
:1009E3000717FE74002FF8EEF20F80E3AFA7E4F5CC
:1009F300A775CFFF75CEF4D2A643C8048FA7228B69
:100A03003B8A3C893DE4FFAB3BAA3CA93DAE070FC3
:100A13008E8275830012071770ED1FEF75F006A421
:100A23002402FF2285A735120AFB120B0F120B2992
:100A330012002E120B30120B05120B19120A891217
:100A43000036120B228535A7228F53120AA2C3EF59
:100A5300950FFDEE950EFCD3ED94C8EC9400400782
:100A63004353408E0E8F0FAF5322ED131313541FB6
:100A7300FEEB131313541FFDEEC39D5008EF2EF826
:100A8300E4F60E80EC22E59154045391FB7595F83E
:100A93007594067593F8759206439104429122AFBB
:100AA300A775A71053E67FAD13AC1243E6808FA75B
:100AB300AE04AF0522751003AFA7E4F5A775CFFF0A
:100AC30075CEFC43C8048FA722E5A1A2E6920CE5EC
:100AD300F8540C24FF9209D20D22C0E053917F05F4
:100AE30013E51370020512D0E032E4FF2083030FF5
:100AF30080052082027F0222E4F5A77597DE7597B1
:100B0300AD22E4F5A775E34075E1022275A44075B3
:100B1300D43F75FE0422E4F5A9E5A930E7FB22756D
:100B2300E68275A8602275A50375D5FE2275A720F8
:100B3300759C1022C29432000000000000000000E7
:100B4300000000000000007FFFFFFFFFFFFFFFFF2B
:100B5300FFFFFFFFFFFFFE4000000000000000005A
:100B63000000000000000240000000000000000040
:100B73000000000000000240000000000000000030
:100B83000000000000000240000000000000000020
:100B93000000000000000240000000000000000010
:100BA3000000000000000240000000000000000000
:100BB30000000000000002400000000000000000F0
:100BC30000000000000002400000000000000000E0
:100BD30000000000000002400000000000000000D0
:100BE3000000000000000240000000000000800040
:100BF3000000001800000240000000000008000789
:100C0300FFE00006000002400000000000C0007F7B
:100C1300FFFE00038000024000000000070003FF06
:100C2300FFFF0003E00002400000000038001FFF48
:100C3300FFFF8003E000024000000001E0003FFFEF
:100C4300FFFF8003F00002400000000F8000FFFF61
:100C5300FFFF8007F80002400000003E0001FFFF95
:100C6300FFFE001FF8000240000000FC0003FFFF2E
:100C7300FFFF80FFF8000240000003F80007FFFFBA
:100C8300FFFFFFFFF8000240000007F00007FFF836
:100C9300003FFFFFF800024000001FF00007F000D4
:100CA30000007FFFF800024000003FF00003C00097
:100CB30000000FFFF000024000007FF00001F00091
:100CC300000003FFE00002400000FFF800007FFF88
:100CD300800001FFC00002400001FFFC0000027F12
:100CE300F00000FF800002400003FFFF000000004F
:100CF3003C0000FF000002400007FFFFE00000008F
:100D0300FE0000FE000002400007FFFFFF8001FF1E
:100D1300FE0000F8000002400007FFFFFFFFFFFF97
:100D2300FE0001F0000002400007FFF87FFFFFFF15
:100D3300FE0003C0000002400007FFE007FFFFFFC3
:100D4300FC000700000002400007FF800FFFFFFFC9
:100D5300F0001C00000002400003FF001FFFFFFF24
:100D6300E0006000000002400003FE000FFFFFFFF1
:100D730080010000000002400001FC0007FFFFFCAF
:100D8300000000000000024000007C0001FFFFC0E3
:100D9300000000000000024000001E00000BE00005
:100DA3000000000000000240000007800000000077
:100DB300000000000000024000000060000000008E
:100DC30000000000000002400000000000000000DE
:100DD30000000000000002400000000000000000CE
:100DE30000000000000002400000000000000000BE
:100DF30000000000000002400007C21021F1F88843
:100E0300008060F8F800024000044210211108C875
:100E1300008060888800024000040210210108C895
:100E2300008090888000024000070210210108E83A
:100E330000809088E00002400001C210210108A850
:100E4300008090F83800024000004210210108B8E9
:100E53000080908808000240000042102101089899
:100E63000081F8880800024000044210211108980C
:100E730000810888880002400007C21F21F1F8881A
:100E830000F908F8F800024000000000000000002C
:100E9300000000000000024000000000000000000D
:100EA30000000000000002400000000000000000FD
:100EB30000000000000002400000000000000000ED
:100EC30000000000000002400000000000000000DD
:100ED30000000000000002400000000000000000CD
:100EE30000000000000002400000000000000000BD
:100EF30000000000000002400000000000000000AD
:100F0300000000000000024000000000000000009C
:100F1300000000000000024000000000000000008C
:100F2300000000000000024000000000000000007C
:100F3300000000000000024000000000000000006C
:100F4300000000000000024000000000000000005C
:100F5300000000000000024000000000000000004C
:100F6300000000000000024000000000000000003C
:100F7300000000000000024000000000000000002C
:100F8300000000000000024000000000000000001C
:100F9300000000000000024000000000000000000C
:100FA30000000000000002407FFFFFFFFFFFFFFF84
:100FB300FFFFFFFFFFFC02404000000000000000B5
:100FC3000000000000040240400000000000000098
:100FD3000000000000040240400000000000000088
:100FE3000000000000040240400000000000000078
:100FF3000000000000040240400000000000000068
:101003000000000000040240400000000000000057
:101013000000000000040240400000000000000047
:101023000000000000040240400000000000000037
:101033000000000000040240400000000000000027
:101043000000000000040240400000000000000017
:101053000000000000040240400000000000000007
:1010630000000000000402404000000000000000F7
:1010730000000000000402404000000000000000E7
:1010830000000000000402404000000000000000D7
:1010930000000000000402404000000000000000C7
:1010A30000000000000402404000000000000000B7
:1010B30000000000000402404000000000000000A7
:1010C3000000000000040240400000000000000097
:1010D3000000000000040240400000000000000087
:1010E3000000000000040240400000000000000077
:1010F3000000000000040240400000000000000067
:101103000000000000040240400000000000000056
:101113000000000000040240400000000000000046
:101123000000000000040240400000000000000036
:101133000000000000040240400000000000000026
:101143000000000000040240400000000000000016
:101153000000000000040240400000000000000006
:1011630000000000000402404000000000000000F6
:1011730000000000000402404000000000000000E6
:1011830000000000000402404000000000000000D6
:1011930000000000000402404000000000000000C6
:1011A30000000000000402404000000000000000B6
:1011B30000000000000402404000000000000000A6
:1011C3000000000000040240400000000000000096
:1011D3000000000000040240400000000000000086
:1011E3000000000000040240400000000000000076
:1011F3000000000000040240400000000000000066
:101203000000000000040240400000000000000055
:101213000000000000040240400000000000000045
:101223000000000000040240400000000000000035
:101233000000000000040240400000000000000025
:101243000000000000040240400000000000000015
:101253000000000000040240400000000000000005
:1012630000000000000402404000000000000000F5
:1012730000000000000402404000000000000000E5
:1012830000000000000402407FFFFFFFFFFFFFFF9D
:10129300FFFFFFFFFFFC0240000000000000000012
:1012A30000000000000002400000000000000000F9
:1012B30000000000000002400000000000000000E9
:1012C30000000000000002400000000000000000D9
:1012D30000000000000002400000000000000000C9
:1012E30000000000000002400000000000000000B9
:1012F30000000000000002400000000000000000A9
:101303000000000000000240000000000000000098
:10131300000000000000027FFFFFFFFFFFFFFFFF51
:10132300FFFFFFFFFFFFFE000000000000000000C2
:10133300000000000000000020505020C06060103A
:1013430040000000000000702070F810F830F870C2
:10135300700000080080707070F070E0F8F870881A
:1013630070388880888870F070F078F8888888886A
:1013730088F8700070200040008000080030008072
:10138300201080600000000000000040000000000A
:101393000000302060000000000000002050507862
:1013A300C890202020202000000000886088103092
:1013B300804008888860601000408808888888908A
:1013C3008080888820109080D888888888888020AA
:1013D3008888888888084000105000200080000812
:1013E30000487880000080200000000000000040DA
:1013F300000000000000402010400000000000003A
:101403002050F88010A0404010A820000000089849
:1014130020082050F080108888606020F820080899
:1014230088888088808080882010A080A8C88888C9
:101433008888802088888850881040801088001011
:1014430070B07068704088B060309020D0B070F099
:1014530068B070E08888888888F8402010A8000069
:101463000000000020005070204000401070F80081
:10147300F80010A82010109008F0207078000040A9
:101483000010106888F08088F0F0B8F82010C08051
:10149300A8A888F088F070208888A82050204040B1
:1014A3001000000008C8809888E088C82010A02099
:1014B300A8C8888898C88040888888508810802069
:1014C30008100000000000000000F80840A80040D9
:1014D30010A82060000020C8202008F80888408851
:1014E30008606020F82020A8F88880888080888899
:1014F3002010A08088988880A8A008208888A850F9
:10150300204040201000000078888088F8407888C8
:101513002010C020A88888F0788070408888A82090
:10152300782040201000000000000000000050F070
:1015330098900020202020200060408820408810C0
:101543008888408810602010004000A88888889010
:101553008080888820909080888888809090082058
:101563008850A88820804010100000008888888850
:10157300804008882090A0208888888008800848B8
:101583009850A850084040201000000000000000C0
:101593002000502018680010400000400060807058
:1015A30070F8701070704070600040080080207008
:1015B30088F070E0F8807088706088F888887080A0
:1015C3006888F0207020508820F870087000FC00B4
:1015D30078F0707870407088706090708888708040
:1015E3000880F0306820508870F8302060000000D8
:1015F30000000000000000000000000000000000E8
:1016030000000000000000000000000000000000D7
:1016130000000000000000000000000000000000C7
:1016230000000000000000000000000000000000B7
:1016330000000000000000000000000000000000A7
:101643000000000000000000000000000000000097
:071653000000000000000090
:00000001FF
