:020000040000FA
:100000000209F4EFB40A07740D12000E740A309856
:1000100011A899B8130CC2983098FDA899C298B845
:0A00200011F63099FDC299F59922FE
:07002B00020AE975A640225C
:1000330002095D75A20B43A14053F8F343F8012273
:10004300020E15EF540FC454F0FEEF54F0C4540FD6
:100053004EFF543325E025E0FEEF54CC1313543FF9
:0F0063004EFF545525E0FEEF54AAC3134EFF2263
:10007300020DC9E56E2462F8E6056E22785F30074B
:10008300027862E475F0011206090204C82000EB4D
:100093007F2ED2008018EF540F2490D43440D4FF25
:1000A30030040BEF24BFB41A0050032461FFE56F43
:1000B3006002156F0572E5727002057130070D78E5
:1000C3005FE475F001120609EF0205F702000374FD
:1000D30003D2078003E4C207F56E8B5F8A608961F0
:1000E300E4F56FF571F572E56F60077F201200B1DB
:1000F30080F57570FFC201C200C202C203C205C20D
:1001030006C20812007FFF700D3007057F00120042
:10011300C2AF72AE7122B4255FC2D5C20412007F92
:10012300FF24D0B40A00501A75F00A786F30D50551
:1001330008B6FF0106C6A426F620D5047002D20332
:1001430080D924CFB41A00EF5004C2E5D2040202CE
:10015300C2D20180C6D20080C0D20280BCD2D58078
:10016300BAD20580B47F201200B12002077401B512
:100173006F0040F1120076FF1200B10200EAD208CC
:10018300D2068095120076FB120076FA120076F9F9
:100193004A4B700679937A037BFF20022EE56F604A
:1001A3002A7E008E827583001204E160060EEE65DE
:1001B3007070F0C2D5EBC0E0EAC0E0E9C0E0EE1237
:1001C3000309D0E0F9D0E0FAD0E0FB1204C8FF60E5
:1001D300AAEBC0E0EAC0E0E9C0E01200B1D0E0243D
:1001E30001F9D0E03400FAD0E0FBE5700460DCD51F
:1001F30070D980877BFF7A037905D202809C7910BE
:1002030080027908C206C2088008D2D5790A800420
:10021300790AC2D5E570047002F570E4FAFDFEFFB9
:10022300120076FC7B08200113120076FD7B103050
:10023300000A120076FE120076FF7B20EC3382D593
:1002430092D55013C3E43000069FFFE49EFEE420E2
:1002530001039DFDE49CFCE4CBF8C201EC700CCFE0
:10026300CECDCCE824F8F870F38017C3EF33FFEE5C
:1002730033FEED33FDEC33FCEB33FB994002FB0F14
:10028300D8E9EB300105F8D0E0C448B201C0E00A78
:10029300EC4D4E4F78207B0070C2EAB5700040BC35
:1002A300C0E012030BD0F0D0E0200104C4C0E0C4CE
:1002B300B201C0F012009AD0F0D5F0EB0200EA12BE
:1002C300061901875302015801584C015442020593
:1002D3004F020D44020D49016D4302135501F746C8
:1002E30001F74501F74703B350015C2D01602E016F
:1002F300832B016423018120039C2A011C480000F5
:10030300017B3F3F3F00790AA2D520031430050942
:10031300B910020404B9080104A2D5200602500151
:10032300042002689202B56F005034C0E07F203091
:1003330003197F30A20272067205500F120362C2C4
:1003430002C206C205C2087F30800F300503E9C030
:10035300E01200B1300503D0E0F9D0E0B56FCC3046
:1003630005177F30B9100C1200B17F583004077F96
:10037300788003B908031200B13002057F2D020013
:10038300B17F202008F87F2B2006F322920280CF32
:10039300286E756C6C2900D2011200763001F8C208
:1003A30001786F30D50108F602011C2D50434958DE
:1003B3001200762403B405004001E49003AE9312C7
:1003C30000A2743A1200A2D203756F04020201E77D
:1003D30009F608DFFA8046E709F208DFFA803E886B
:1003E300828C83E709F0A3DFFA8032E309F608DFA2
:1003F300FA8078E309F208DFFA807088828C83E35D
:1004030009F0A3DFFA806489828A83E0A3F608DF18
:10041300FA805889828A83E0A3F208DFFA804C804D
:10042300D280FA80C680D4806980F28033801080C5
:10043300A680EA809A80A880DA80E280CA80338925
:10044300828A83ECFAE493A3C8C582C8CCC583CC63
:10045300F0A3C8C582C8CCC583CCDFE9DEE7800D35
:1004630089828A83E493A3F608DFF9ECFAA9F0ED15
:10047300FB2289828A83ECFAE0A3C8C582C8CCC573
:1004830083CCF0A3C8C582C8CCC583CCDFEADEE841
:1004930080DB89828A83E493A3F208DFF980CC8826
:1004A300F0EF60010E4E60C388F0ED2402B4040047
:1004B30050B9F582EB2402B4040050AF23234582E4
:1004C3002390042273BB010689828A83E0225002AF
:1004D300E722BBFE02E32289828A83E49322BB01E3
:1004E3000CE58229F582E5833AF583E0225006E99B
:1004F3002582F8E622BBFE06E92582F8E222E582A0
:1005030029F582E5833AF583E49322E709F6087037
:10051300FA8046E709F20870FA803E88828C83E706
:1005230009F0A370FA807EE309F60870FA8076E397
:1005330009F20870FA806E88828C83E309F0A37055
:10054300FA806289828A83E0A3F60870FA8056896A
:10055300828A83E0A3F20870FA804A80D280FA800C
:10056300C680D4806580F28031801080A680EA80C6
:100573009A80A880DA80E280CA803189828A83ECFB
:10058300FAE493A3C8C582C8CCC583CCF0A3C8C57D
:1005930082C8CCC583CC70E9800D89828A83E493B9
:1005A300A3F60870F9ECFAA9F0EDFB2289828A839D
:1005B300ECFAE0A3C8C582C8CCC583CCF0A3C8C5F8
:1005C30082C8CCC583CC70EA80DD89828A83E493B8
:1005D300A3F20870F980CE88F0ED2402B404005031
:1005E300C4F582EB2402B4040050BA2323458223CA
:1005F30090055E73BB010689828A83F0225002F75D
:1006030022BBFE01F322FAE6FB0808E6F925F0F621
:1006130018E6CA3AF622D083D082F8E493701274B3
:100623000193700DA3A393F8740193F5828883E477
:10063300737402936860EFA3A3A380DFE4F528F546
:1006430029F52AF52B120D01C294D2AF20830BE5B5
:100653000D450C7005F50C750D01E50D450C70038A
:100663000208997562FF75630C7564B6851065851C
:1006730011667B007A0079361200D27562FF7563CA
:100683000C7564B6850A65850B667B007A00793341
:100693001200D27562FF75630C7564B6850E6585AD
:1006A3000F667B007A0079301200D27562FF7563A2
:1006B3000C7564B68512658513667B007A00792C08
:1006C3001200D278397C007D007BFF7A0C79B91255
:1006D30005DA7562007563007564367B007A00790C
:1006E30039120B487562FF75630C7564BF7B007A22
:1006F300007939120B487562007563007564337BAA
:10070300007A007939120B487562FF75630C7564C2
:10071300BF7B007A007939120B487562007563005C
:100723007564307B007A007939120B487562FF7566
:10073300630C7564BF7B007A007939120B487562CC
:100743000075630075642C7B007A007939120B48BD
:100753007B007A007939E4FD120A80C3E51394E73C
:10076300E51264809483500A0513E513704905125A
:100773008045C3E50F943BE50E64809480500FE4FD
:10078300F512F513050FE50F7002050E8029C3E579
:100793000B943BE50A64809480500FE4F50EF50F4B
:1007A300050BE50B7002050A800DE4F50AF50B0550
:1007B30011E51170020510120DA6EF64016003022A
:1007C300087278497C00FD7BFF7A0C79C6FE7F03B3
:1007D3001204A2784C7C007D007BFF7A0C79C97EE1
:1007E300007F131204A274082529F529E43528F59E
:1007F30028052BE52B7002052A7562FF75630C75BE
:1008030064B6852A65F5667B007A0079491200D2C1
:100813007562FF75630C7564C17B007A00794C12B5
:100823000B487562007563007564497B007A007933
:100833004C120B487562FF75630C7564BF7B007ABD
:1008430000794C120B487562007563007564397B3F
:10085300007A00794C120B487B007A00794CAD2961
:10086300120A80E529647845287004F528F52930B3
:10087300820CE509640145087004F508F509308325
:100883000302065DE50D6401450C600302065DF598
:100893000CF50D02065D228F658D668B67AB68AA2A
:1008A30069A96A1204C8700302095CF56BC364800A
:1008B30094A04009D3E56B648094FE4003756B20DC
:1008C300E566D394784002807CAF6BEF3395E0FE0E
:1008D30075F064E567A42FF582E5F03EF583E582C4
:1008E30024F8F582E5833415F583E493F9E566137B
:1008F3001313541F2565FDF8C000E6FA08E6FBE56F
:10090300665407FCE47EFFA804088005CEC313CE1B
:1009130013D8F9F4FFEEF45AFEEB5FD000A60608F5
:10092300F6A805C000E6FA08E6FBE9FEE4A8040819
:100933008005CEC313CE13D8F9FFEA4EFEEB4FD09A
:1009430000A60608F67401256AF56AE43569F569B7
:1009530074062566F5660208A022C0E0C0F0C083D5
:10096300C082C0D075D000C000C001C002C003C0A7
:1009730004C005C006C00775A720E5F854F0F44489
:100983000F52F8AF9BEF30E34DE5146031E5A12042
:10099300E02C300A13851882851783E5A3F0051828
:1009A300E51870070517800385A327D5140D300CB0
:1009B30005300902D2FA120D928003851416E5154B
:1009C300601430F911300B09A819E2F5A305198059
:1009D3000375A3001515D007D006D005D004D003A6
:1009E300D002D001D000D0D0D082D083D0F0D0E0DC
:1009F30032787FE4F6D8FD75818F020A3B02063F09
:100A0300E493A3F8E493A34003F68001F208DFF430
:100A13008029E493A3F85407240CC8C333C4540FA8
:100A23004420C8834004F456800146F6DFE4800B7B
:100A33000102040810204080900C34E47E0193608E
:100A4300BCA3FF543F30E509541FFEE493A36001A8
:100A53000ECF54C025E060A840B8E493A3FAE49312
:100A6300A3F8E493A3C8C582C8CAC583CAF0A3C8C0
:100A7300C582C8CAC583CADFE9DEE780BE8D628B43
:100A83005F8A608961120CDC8F64E4F563E563902F
:100A9300145893FF74802563F8A6070563E563B4D0
:100AA30010EBE4F5637F807B707D10120D47C00768
:100AB300C374809564FFE49400C313EF13FD855F53
:100AC3006885606985616AD007AB6312089AE5633C
:100AD3002562FF7B007A007980120BF20563E563E0
:100AE300C3940840C022C0E0C0F0C083C082C0D01D
:100AF30075D000C000C001C002C003C004C005C05F
:100B030006C00753C87F53C8FBE51CB40112751C0C
:100B1300027F00851D267B02E4FDFC120BA0800AE8
:100B2300E51CB40305C2A6751C00D007D006D0058A
:100B3300D004D003D002D001D000D0D0D082D08353
:100B4300D0F0D0E0328B5F8A6089618B658A6689D9
:100B530067AB5F0561E561AA607002056014F91275
:100B630004C870ED74FF2561F56174FF3560F560AD
:100B7300AB620564E564AA637002056314F91204A9
:100B8300C8FFAB5F0561E561AA607002056014F9F7
:100B9300EF1205F770DAAB65AA66A96722852614FA
:100BA3008526158526168F198C178D18EB13920A37
:100BB300EBA2E1920BAFA775A720200D03120DB88E
:100BC300439A0453F80F539BEF439A08300C0530B4
:100BD3000902C2FA30F915E5156011300B09A8199D
:100BE300E2F5A305198003E4F5A315158FA7228F5A
:100BF300658B668A6789687F80120D268F69E56534
:100C030004FF1200468F6AE4FFAB66AA67A9688FE8
:100C1300827583001204E1FE746B2FF8A6060FBFE2
:100C230010E7E4F57BF57CFB7A0079697D14020C0F
:100C330075021A0000011C00011D00021E0000C104
:100C430009C10CC10DC10AC10B011400011500013A
:100C530016000119000217000002080000020C0030
:100C63000002120000020E0000020A00000210003F
:100C730000008B7D8A7E897FE51C70FC751C018DCD
:100C83001DE4FFEFC39D5018AB7DAA7EA97F8F8221
:100C93007583001204E1FE74002FF8EEF20F80E377
:100CA300AFA7E4F5A775CFFF75CEF4D2A643C8046A
:100CB3008FA72225690054696D653A003A004C619B
:100CC3007020000000000000000000000000000091
:100CD3000000000000000000008B658A668967E45D
:100CE300FFAB65AA66A967AE070F8E8275830012F4
:100CF30004E170ED1FEF75F006A42402FF2285A71F
:100D03005F120DD9120DED120E0712002E120E0EE8
:100D1300120DE3120DF7120D63120036120E008549
:100D23005FA7228F7D120D7CC3EF951BFDEE951AF5
:100D3300FCD3ED94C8EC94004007437D408E1A8F9A
:100D43001BAF7D22ED131313541FFEEB1313135428
:100D53001FFDEEC39D5008EF2EF8E4F60E80EC2243
:100D6300E59154045391FB7595F87594067593F8C2
:100D7300759206439104429122AFA775A71053E6DB
:100D83007FAD1FAC1E43E6808FA7AE04AF0522756F
:100D93001C03AFA7E4F5A775CFFF75CEFC43C804CA
:100DA3008FA722E4FF20820CE509450870060FF5A2
:100DB3000875090122E5A1A2E6920CE5F8540C247A
:100DC300FF9209D20D22C0E053917F051FE51F70EA
:100DD30002051ED0E032E4F5A77597DE7597AD22C4
:100DE300E4F5A775E34075E1022275A44075D43F8D
:100DF30075FE0422E4F5A9E5A930E7FB2275E68236
:100E030075A8602275A50375D5FE2275A720759C6C
:100E13001022C29432000000000000000000000015
:100E230000000000007FFFFFFFFFFFFFFFFFFFFF4A
:100E3300FFFFFFFFFE400000000000000000000075
:100E4300000000000240000000000000000000005D
:100E5300000000000240000000000000000000004D
:100E6300000000000240000000000000000000003D
:100E7300000000000240000000000000000000002D
:100E8300000000000240000000000000000000001D
:100E9300000000000240000000000000000000000D
:100EA30000000000024000000000000000000000FD
:100EB30000000000024000000000000000000000ED
:100EC300000000000240000000000000800000005D
:100ED3000018000002400000000000080007FFE0C7
:100EE3000006000002400000000000C0007FFFFE7B
:100EF30000038000024000000000070003FFFFFF23
:100F03000003E00002400000000038001FFFFFFF65
:100F13008003E000024000000001E0003FFFFFFF0C
:100F23008003F00002400000000F8000FFFFFFFF7E
:100F33008007F80002400000003E0001FFFFFFFEB3
:100F4300001FF8000240000000FC0003FFFFFFFF4A
:100F530080FFF8000240000003F80007FFFFFFFFD7
:100F6300FFFFF8000240000007F00007FFF8003F12
:100F7300FFFFF800024000001FF00007F000000030
:100F83007FFFF800024000003FF00003C0000000B4
:100F93000FFFF000024000007FF00001F0000000AE
:100FA30003FFE00002400000FFF800007FFF800025
:100FB30001FFC00002400001FFFC0000027FF000BF
:100FC30000FF800002400003FFFF000000003C0020
:100FD30000FF000002400007FFFFE0000000FE00EA
:100FE30000FE000002400007FFFFFF8001FFFE003C
:100FF30000F8000002400007FFFFFFFFFFFFFE00B5
:1010030001F0000002400007FFF87FFFFFFFFE0032
:1010130003C0000002400007FFE007FFFFFFFC00E2
:101023000700000002400007FF800FFFFFFFF000F2
:101033001C00000002400003FF001FFFFFFFE00051
:101043006000000002400003FE000FFFFFFF80016D
:101053000000000002400001FC0007FFFFFC00004D
:1010630000000000024000007C0001FFFFC0000000
:1010730000000000024000001E00000BE000000022
:101083000000000002400000078000000000000094
:1010930000000000024000000060000000000000AB
:1010A30000000000024000000000000000000000FB
:1010B30000000000024000000000000000000000EB
:1010C30000000000024000000000000000000000DB
:1010D3000000000002400007C21021F1F8880080E0
:1010E30060F8F800024000044210211108C8008093
:1010F30060888800024000040210210108C80080B3
:1011030090888000024000070210210108E8008057
:101113009088E00002400001C210210108A800806D
:1011230090F83800024000004210210108B8008006
:1011330090880800024000004210210108980081B5
:10114300F888080002400004421021110898008129
:101153000888880002400007C21F21F1F88800F9BF
:1011630008F8F80002400000000000000000000042
:10117300000000000240000000000000000000002A
:10118300000000000240000000000000000000001A
:10119300000000000240000000000000000000000A
:1011A30000000000024000000000000000000000FA
:1011B30000000000024000000000000000000000EA
:1011C30000000000024000000000000000000000DA
:1011D30000000000024000000000000000000000CA
:1011E30000000000024000000000000000000000BA
:1011F30000000000024000000000000000000000AA
:101203000000000002400000000000000000000099
:101213000000000002400000000000000000000089
:101223000000000002400000000000000000000079
:101233000000000002400000000000000000000069
:101243000000000002400000000000000000000059
:101253000000000002400000000000000000000049
:101263000000000002400000000000000000000039
:101273000000000002400000000000000000000029
:101283000000000002407FFFFFFFFFFFFFFFFFFFA3
:10129300FFFFFFFC024040000000000000000000D0
:1012A30000000004024040000000000000000000B5
:1012B30000000004024040000000000000000000A5
:1012C3000000000402404000000000000000000095
:1012D3000000000402404000000000000000000085
:1012E3000000000402404000000000000000000075
:1012F3000000000402404000000000000000000065
:101303000000000402404000000000000000000054
:101313000000000402404000000000000000000044
:101323000000000402404000000000000000000034
:101333000000000402404000000000000000000024
:101343000000000402404000000000000000000014
:101353000000000402404000000000000000000004
:1013630000000004024040000000000000000000F4
:1013730000000004024040000000000000000000E4
:1013830000000004024040000000000000000000D4
:1013930000000004024040000000000000000000C4
:1013A30000000004024040000000000000000000B4
:1013B30000000004024040000000000000000000A4
:1013C3000000000402404000000000000000000094
:1013D3000000000402404000000000000000000084
:1013E3000000000402404000000000000000000074
:1013F3000000000402404000000000000000000064
:101403000000000402404000000000000000000053
:101413000000000402404000000000000000000043
:101423000000000402404000000000000000000033
:101433000000000402404000000000000000000023
:101443000000000402404000000000000000000013
:101453000000000402404000000000000000000003
:1014630000000004024040000000000000000000F3
:1014730000000004024040000000000000000000E3
:1014830000000004024040000000000000000000D3
:1014930000000004024040000000000000000000C3
:1014A30000000004024040000000000000000000B3
:1014B30000000004024040000000000000000000A3
:1014C3000000000402404000000000000000000093
:1014D3000000000402404000000000000000000083
:1014E3000000000402404000000000000000000073
:1014F3000000000402404000000000000000000063
:101503000000000402404000000000000000000052
:101513000000000402404000000000000000000042
:101523000000000402404000000000000000000032
:101533000000000402404000000000000000000022
:101543000000000402404000000000000000000012
:101553000000000402404000000000000000000002
:101563000000000402407FFFFFFFFFFFFFFFFFFFBC
:10157300FFFFFFFC0240000000000000000000002D
:101583000000000002400000000000000000000016
:101593000000000002400000000000000000000006
:1015A30000000000024000000000000000000000F6
:1015B30000000000024000000000000000000000E6
:1015C30000000000024000000000000000000000D6
:1015D30000000000024000000000000000000000C6
:1015E30000000000024000000000000000000000B6
:1015F30000000000027FFFFFFFFFFFFFFFFFFFFF71
:10160300FFFFFFFFFE0000000000000000000000DD
:1016130000000000000020505020C0606010400017
:101623000000000000702070F810F830F8707000AF
:1016330000080080707070F070E0F8F870887038FF
:101643008880888870F070F078F88888888888F8AF
:1016530070007020004000800008003000802010DF
:101663008060000000000000004000000000000057
:101673003020600000000000000020505078C89027
:101683002020202020000000008860881030804047
:101693000888886060100040880888888890808067
:1016A300888820109080D8888888888880208888B7
:1016B30088888808400010500020008000080048F7
:1016C300788000008020000000000000004000003F
:1016D30000000000402010400000000000002050E7
:1016E300F88010A0404010A82000000008982008AF
:1016F3002050F080108888606020F82008088888CF
:101703008088808080882010A080A8C888888888E6
:10171300802088888850881040801088001070B01E
:101723007068704088B060309020D0B070F068B0BE
:1017330070E08888888888F8402010A8000000009E
:10174300000020005070204000401070F800F800A6
:1017530010A82010109008F02070780000400010AE
:10176300106888F08088F0F0B8F82010C080A8A82E
:1017730088F088F070208888A8205020404010000E
:10178300000008C8809888E088C82010A020A8C856
:10179300888898C8804088888850881080200810DE
:1017A3000000000000000000F80840A8004010A856
:1017B3002060000020C8202008F8088840880860BE
:1017C3006020F82020A8F8888088808088882010EE
:1017D300A08088988880A8A008208888A8502040E6
:1017E30040201000000078888088F8407888201016
:1017F300C020A88888F0788070408888A820782046
:1018030040201000000000000000000050F09890FD
:1018130000202020202000604088204088108888F5
:10182300408810602010004000A88888889080803D
:10183300888820909080888888809090082088509D
:10184300A888208040101000000088888888804085
:1018530008882090A02088888880088008489850AD
:10186300A8500840402010000000000000002000A5
:10187300502018680010400000400060807070F82D
:10188300701070704070600040080080207088F015
:1018930070E0F8807088706088F888887080688845
:1018A300F0207020508820F870087000FC0078F059
:1018B300707870407088706090708888708008803D
:1018C300F0306820508870F830206000000000007D
:1018D3000000000000000000000000000000000005
:1018E30000000000000000000000000000000000F5
:1018F30000000000000000000000000000000000E5
:1019030000000000000000000000000000000000D4
:1019130000000000000000000000000000000000C4
:1019230000000000000000000000000000000000B4
:051933000000000000AF
:00000001FF
